{"abi":[{"type":"constructor","inputs":[{"name":"_verifier","type":"address","internalType":"contract IVerifier"}],"stateMutability":"nonpayable"},{"type":"function","name":"MIN_DURATION","inputs":[],"outputs":[{"name":"","type":"uint256","internalType":"uint256"}],"stateMutability":"view"},{"type":"function","name":"balanceOf","inputs":[{"name":"account","type":"address","internalType":"address"},{"name":"id","type":"uint256","internalType":"uint256"}],"outputs":[{"name":"","type":"uint256","internalType":"uint256"}],"stateMutability":"view"},{"type":"function","name":"balanceOfBatch","inputs":[{"name":"accounts","type":"address[]","internalType":"address[]"},{"name":"ids","type":"uint256[]","internalType":"uint256[]"}],"outputs":[{"name":"","type":"uint256[]","internalType":"uint256[]"}],"stateMutability":"view"},{"type":"function","name":"contractURI","inputs":[],"outputs":[{"name":"","type":"string","internalType":"string"}],"stateMutability":"pure"},{"type":"function","name":"getCurrentPanagram","inputs":[],"outputs":[{"name":"","type":"bytes32","internalType":"bytes32"}],"stateMutability":"view"},{"type":"function","name":"getCurrentRoundStatus","inputs":[],"outputs":[{"name":"","type":"address","internalType":"address"}],"stateMutability":"view"},{"type":"function","name":"isApprovedForAll","inputs":[{"name":"account","type":"address","internalType":"address"},{"name":"operator","type":"address","internalType":"address"}],"outputs":[{"name":"","type":"bool","internalType":"bool"}],"stateMutability":"view"},{"type":"function","name":"makeGuess","inputs":[{"name":"proof","type":"bytes","internalType":"bytes"}],"outputs":[{"name":"","type":"bool","internalType":"bool"}],"stateMutability":"nonpayable"},{"type":"function","name":"newRound","inputs":[{"name":"_correctAnswer","type":"bytes32","internalType":"bytes32"}],"outputs":[],"stateMutability":"nonpayable"},{"type":"function","name":"owner","inputs":[],"outputs":[{"name":"","type":"address","internalType":"address"}],"stateMutability":"view"},{"type":"function","name":"renounceOwnership","inputs":[],"outputs":[],"stateMutability":"nonpayable"},{"type":"function","name":"s_answer","inputs":[],"outputs":[{"name":"","type":"bytes32","internalType":"bytes32"}],"stateMutability":"view"},{"type":"function","name":"s_currentRound","inputs":[],"outputs":[{"name":"","type":"uint256","internalType":"uint256"}],"stateMutability":"view"},{"type":"function","name":"s_currentRoundWinner","inputs":[],"outputs":[{"name":"","type":"address","internalType":"address"}],"stateMutability":"view"},{"type":"function","name":"s_lastCorrectGuessRound","inputs":[{"name":"","type":"address","internalType":"address"}],"outputs":[{"name":"","type":"uint256","internalType":"uint256"}],"stateMutability":"view"},{"type":"function","name":"s_roundStartTime","inputs":[],"outputs":[{"name":"","type":"uint256","internalType":"uint256"}],"stateMutability":"view"},{"type":"function","name":"s_verifier","inputs":[],"outputs":[{"name":"","type":"address","internalType":"contract IVerifier"}],"stateMutability":"view"},{"type":"function","name":"s_winnerWins","inputs":[{"name":"","type":"address","internalType":"address"}],"outputs":[{"name":"","type":"uint256","internalType":"uint256"}],"stateMutability":"view"},{"type":"function","name":"safeBatchTransferFrom","inputs":[{"name":"from","type":"address","internalType":"address"},{"name":"to","type":"address","internalType":"address"},{"name":"ids","type":"uint256[]","internalType":"uint256[]"},{"name":"values","type":"uint256[]","internalType":"uint256[]"},{"name":"data","type":"bytes","internalType":"bytes"}],"outputs":[],"stateMutability":"nonpayable"},{"type":"function","name":"safeTransferFrom","inputs":[{"name":"from","type":"address","internalType":"address"},{"name":"to","type":"address","internalType":"address"},{"name":"id","type":"uint256","internalType":"uint256"},{"name":"value","type":"uint256","internalType":"uint256"},{"name":"data","type":"bytes","internalType":"bytes"}],"outputs":[],"stateMutability":"nonpayable"},{"type":"function","name":"setApprovalForAll","inputs":[{"name":"operator","type":"address","internalType":"address"},{"name":"approved","type":"bool","internalType":"bool"}],"outputs":[],"stateMutability":"nonpayable"},{"type":"function","name":"setVerifier","inputs":[{"name":"_verifier","type":"address","internalType":"contract IVerifier"}],"outputs":[],"stateMutability":"nonpayable"},{"type":"function","name":"supportsInterface","inputs":[{"name":"interfaceId","type":"bytes4","internalType":"bytes4"}],"outputs":[{"name":"","type":"bool","internalType":"bool"}],"stateMutability":"view"},{"type":"function","name":"transferOwnership","inputs":[{"name":"newOwner","type":"address","internalType":"address"}],"outputs":[],"stateMutability":"nonpayable"},{"type":"function","name":"uri","inputs":[{"name":"","type":"uint256","internalType":"uint256"}],"outputs":[{"name":"","type":"string","internalType":"string"}],"stateMutability":"view"},{"type":"event","name":"ApprovalForAll","inputs":[{"name":"account","type":"address","indexed":true,"internalType":"address"},{"name":"operator","type":"address","indexed":true,"internalType":"address"},{"name":"approved","type":"bool","indexed":false,"internalType":"bool"}],"anonymous":false},{"type":"event","name":"OwnershipTransferred","inputs":[{"name":"previousOwner","type":"address","indexed":true,"internalType":"address"},{"name":"newOwner","type":"address","indexed":true,"internalType":"address"}],"anonymous":false},{"type":"event","name":"Panagram__NFTMinted","inputs":[{"name":"winner","type":"address","indexed":false,"internalType":"address"},{"name":"tokenId","type":"uint256","indexed":false,"internalType":"uint256"}],"anonymous":false},{"type":"event","name":"Panagram__ProofSucceeded","inputs":[{"name":"result","type":"bool","indexed":false,"internalType":"bool"}],"anonymous":false},{"type":"event","name":"Panagram__RoundStarted","inputs":[],"anonymous":false},{"type":"event","name":"Panagram__VerifierUpdated","inputs":[{"name":"verifier","type":"address","indexed":false,"internalType":"contract IVerifier"}],"anonymous":false},{"type":"event","name":"TransferBatch","inputs":[{"name":"operator","type":"address","indexed":true,"internalType":"address"},{"name":"from","type":"address","indexed":true,"internalType":"address"},{"name":"to","type":"address","indexed":true,"internalType":"address"},{"name":"ids","type":"uint256[]","indexed":false,"internalType":"uint256[]"},{"name":"values","type":"uint256[]","indexed":false,"internalType":"uint256[]"}],"anonymous":false},{"type":"event","name":"TransferSingle","inputs":[{"name":"operator","type":"address","indexed":true,"internalType":"address"},{"name":"from","type":"address","indexed":true,"internalType":"address"},{"name":"to","type":"address","indexed":true,"internalType":"address"},{"name":"id","type":"uint256","indexed":false,"internalType":"uint256"},{"name":"value","type":"uint256","indexed":false,"internalType":"uint256"}],"anonymous":false},{"type":"event","name":"URI","inputs":[{"name":"value","type":"string","indexed":false,"internalType":"string"},{"name":"id","type":"uint256","indexed":true,"internalType":"uint256"}],"anonymous":false},{"type":"error","name":"ERC1155InsufficientBalance","inputs":[{"name":"sender","type":"address","internalType":"address"},{"name":"balance","type":"uint256","internalType":"uint256"},{"name":"needed","type":"uint256","internalType":"uint256"},{"name":"tokenId","type":"uint256","internalType":"uint256"}]},{"type":"error","name":"ERC1155InvalidApprover","inputs":[{"name":"approver","type":"address","internalType":"address"}]},{"type":"error","name":"ERC1155InvalidArrayLength","inputs":[{"name":"idsLength","type":"uint256","internalType":"uint256"},{"name":"valuesLength","type":"uint256","internalType":"uint256"}]},{"type":"error","name":"ERC1155InvalidOperator","inputs":[{"name":"operator","type":"address","internalType":"address"}]},{"type":"error","name":"ERC1155InvalidReceiver","inputs":[{"name":"receiver","type":"address","internalType":"address"}]},{"type":"error","name":"ERC1155InvalidSender","inputs":[{"name":"sender","type":"address","internalType":"address"}]},{"type":"error","name":"ERC1155MissingApprovalForAll","inputs":[{"name":"operator","type":"address","internalType":"address"},{"name":"owner","type":"address","internalType":"address"}]},{"type":"error","name":"OwnableInvalidOwner","inputs":[{"name":"owner","type":"address","internalType":"address"}]},{"type":"error","name":"OwnableUnauthorizedAccount","inputs":[{"name":"account","type":"address","internalType":"address"}]},{"type":"error","name":"Panagram__AlreadyAnsweredCorrectly","inputs":[]},{"type":"error","name":"Panagram__FirstPanagramNotSet","inputs":[]},{"type":"error","name":"Panagram__IncorrectGuess","inputs":[]},{"type":"error","name":"Panagram__InvalidTokenId","inputs":[]},{"type":"error","name":"Panagram__MinTimeNotPassed","inputs":[{"name":"mintTimePassed","type":"uint256","internalType":"uint256"},{"name":"currentTimePassed","type":"uint256","internalType":"uint256"}]},{"type":"error","name":"Panagram__NoRoundWinner","inputs":[]}],"bytecode":{"object":"0x6080604052612a30600a55348015610015575f5ffd5b5060405161364c38038061364c8339818101604052810190610037919061026c565b336040518060800160405280604c8152602001613600604c91396100608161012760201b60201c565b505f73ffffffffffffffffffffffffffffffffffffffff168173ffffffffffffffffffffffffffffffffffffffff16036100d1575f6040517f1e4fbdf70000000000000000000000000000000000000000000000000000000081526004016100c891906102a6565b60405180910390fd5b6100e08161013a60201b60201c565b508060045f6101000a81548173ffffffffffffffffffffffffffffffffffffffff021916908373ffffffffffffffffffffffffffffffffffffffff160217905550506105cb565b806002908161013691906104fc565b5050565b5f60035f9054906101000a900473ffffffffffffffffffffffffffffffffffffffff1690508160035f6101000a81548173ffffffffffffffffffffffffffffffffffffffff021916908373ffffffffffffffffffffffffffffffffffffffff1602179055508173ffffffffffffffffffffffffffffffffffffffff168173ffffffffffffffffffffffffffffffffffffffff167f8be0079c531659141344cd1fd0a4f28419497f9722a3daafe3b4186f6b6457e060405160405180910390a35050565b5f5ffd5b5f73ffffffffffffffffffffffffffffffffffffffff82169050919050565b5f61022a82610201565b9050919050565b5f61023b82610220565b9050919050565b61024b81610231565b8114610255575f5ffd5b50565b5f8151905061026681610242565b92915050565b5f60208284031215610281576102806101fd565b5b5f61028e84828501610258565b91505092915050565b6102a081610220565b82525050565b5f6020820190506102b95f830184610297565b92915050565b5f81519050919050565b7f4e487b71000000000000000000000000000000000000000000000000000000005f52604160045260245ffd5b7f4e487b71000000000000000000000000000000000000000000000000000000005f52602260045260245ffd5b5f600282049050600182168061033a57607f821691505b60208210810361034d5761034c6102f6565b5b50919050565b5f819050815f5260205f209050919050565b5f6020601f8301049050919050565b5f82821b905092915050565b5f600883026103af7fffffffffffffffffffffffffffffffffffffffffffffffffffffffffffffffff82610374565b6103b98683610374565b95508019841693508086168417925050509392505050565b5f819050919050565b5f819050919050565b5f6103fd6103f86103f3846103d1565b6103da565b6103d1565b9050919050565b5f819050919050565b610416836103e3565b61042a61042282610404565b848454610380565b825550505050565b5f5f905090565b610441610432565b61044c81848461040d565b505050565b5b8181101561046f576104645f82610439565b600181019050610452565b5050565b601f8211156104b45761048581610353565b61048e84610365565b8101602085101561049d578190505b6104b16104a985610365565b830182610451565b50505b505050565b5f82821c905092915050565b5f6104d45f19846008026104b9565b1980831691505092915050565b5f6104ec83836104c5565b9150826002028217905092915050565b610505826102bf565b67ffffffffffffffff81111561051e5761051d6102c9565b5b6105288254610323565b610533828285610473565b5f60209050601f831160018114610564575f8415610552578287015190505b61055c85826104e1565b8655506105c3565b601f19841661057286610353565b5f5b8281101561059957848901518255600182019150602085019450602081019050610574565b868310156105b657848901516105b2601f8916826104c5565b8355505b6001600288020188555050505b505050505050565b613028806105d85f395ff3fe608060405234801561000f575f5ffd5b5060043610610170575f3560e01c8063715018a6116100dc578063c5c1676d11610095578063e8a3d4851161006f578063e8a3d4851461044c578063e985e9c51461046a578063f242432a1461049a578063f2fde38b146104b657610170565b8063c5c1676d146103e0578063da730836146103fe578063e890cd591461041c57610170565b8063715018a61461034457806376f865f91461034e5780637d1ca52c1461036c5780638da5cb5b14610388578063a22cb465146103a6578063b6a6d177146103c257610170565b80633dc09e051161012e5780633dc09e051461025c5780633e7fbd061461028c578063463e4069146102aa5780634e1273f4146102c85780635437988d146102f85780635cb2b4471461031457610170565b8062fdd58e1461017457806301ffc9a7146101a45780630d31d835146101d45780630e89341c146101f25780632eb2c2d614610222578063305da2db1461023e575b5f5ffd5b61018e60048036038101906101899190611fe2565b6104d2565b60405161019b919061202f565b60405180910390f35b6101be60048036038101906101b9919061209d565b610527565b6040516101cb91906120e2565b60405180910390f35b6101dc610608565b6040516101e9919061210a565b60405180910390f35b61020c60048036038101906102079190612123565b610630565b60405161021991906121be565b60405180910390f35b61023c600480360381019061023791906123ce565b6106c2565b005b610246610769565b60405161025391906124b1565b60405180910390f35b61027660048036038101906102719190612523565b61076f565b60405161028391906120e2565b60405180910390f35b610294610bbd565b6040516102a1919061202f565b60405180910390f35b6102b2610bc3565b6040516102bf91906124b1565b60405180910390f35b6102e260048036038101906102dd919061262e565b610bcc565b6040516102ef919061275b565b60405180910390f35b610312600480360381019061030d91906127b6565b610cd6565b005b61032e600480360381019061032991906127e1565b610d58565b60405161033b919061202f565b60405180910390f35b61034c610d6d565b005b610356610d80565b604051610363919061210a565b60405180910390f35b61038660048036038101906103819190612836565b610da5565b005b610390610f42565b60405161039d919061210a565b60405180910390f35b6103c060048036038101906103bb919061288b565b610f6a565b005b6103ca610f80565b6040516103d7919061202f565b60405180910390f35b6103e8610f86565b6040516103f5919061202f565b60405180910390f35b610406610f8c565b6040516104139190612924565b60405180910390f35b610436600480360381019061043191906127e1565b610fb1565b604051610443919061202f565b60405180910390f35b610454610fc6565b60405161046191906121be565b60405180910390f35b610484600480360381019061047f919061293d565b610fe6565b60405161049191906120e2565b60405180910390f35b6104b460048036038101906104af919061297b565b611074565b005b6104d060048036038101906104cb91906127e1565b61111b565b005b5f5f5f8381526020019081526020015f205f8473ffffffffffffffffffffffffffffffffffffffff1673ffffffffffffffffffffffffffffffffffffffff1681526020019081526020015f2054905092915050565b5f7fd9b67a26000000000000000000000000000000000000000000000000000000007bffffffffffffffffffffffffffffffffffffffffffffffffffffffff1916827bffffffffffffffffffffffffffffffffffffffffffffffffffffffff191614806105f157507f0e89341c000000000000000000000000000000000000000000000000000000007bffffffffffffffffffffffffffffffffffffffffffffffffffffffff1916827bffffffffffffffffffffffffffffffffffffffffffffffffffffffff1916145b8061060157506106008261119f565b5b9050919050565b5f60065f9054906101000a900473ffffffffffffffffffffffffffffffffffffffff16905090565b60606002805461063f90612a3b565b80601f016020809104026020016040519081016040528092919081815260200182805461066b90612a3b565b80156106b65780601f1061068d576101008083540402835291602001916106b6565b820191905f5260205f20905b81548152906001019060200180831161069957829003601f168201915b50505050509050919050565b5f6106cb611208565b90508073ffffffffffffffffffffffffffffffffffffffff168673ffffffffffffffffffffffffffffffffffffffff1614158015610710575061070e8682610fe6565b155b156107545780866040517fe237d92200000000000000000000000000000000000000000000000000000000815260040161074b929190612a6b565b60405180910390fd5b610761868686868661120f565b505050505050565b60095481565b5f5f600554036107ab576040517f29db9c1d00000000000000000000000000000000000000000000000000000000815260040160405180910390fd5b5f600267ffffffffffffffff8111156107c7576107c66121e2565b5b6040519080825280602002602001820160405280156107f55781602001602082028036833780820191505090505b5090503373ffffffffffffffffffffffffffffffffffffffff165f1b815f8151811061082457610823612a92565b5b6020026020010181815250506009548160018151811061084757610846612a92565b5b60200260200101818152505060055460085f3373ffffffffffffffffffffffffffffffffffffffff1673ffffffffffffffffffffffffffffffffffffffff1681526020019081526020015f2054036108cb576040517f80baf78400000000000000000000000000000000000000000000000000000000815260040160405180910390fd5b5f60045f9054906101000a900473ffffffffffffffffffffffffffffffffffffffff1673ffffffffffffffffffffffffffffffffffffffff1663ea50d0e48686856040518463ffffffff1660e01b815260040161092a93929190612bb2565b602060405180830381865afa158015610945573d5f5f3e3d5ffd5b505050506040513d601f19601f820116820180604052508101906109699190612bfd565b90507f47aad10b2c3d31c559a3aaf85583d8a1755466b10544ed29a39a1525c3386b748160405161099a91906120e2565b60405180910390a1806109d9576040517f987eab0000000000000000000000000000000000000000000000000000000000815260040160405180910390fd5b60055460085f3373ffffffffffffffffffffffffffffffffffffffff1673ffffffffffffffffffffffffffffffffffffffff1681526020019081526020015f20819055505f73ffffffffffffffffffffffffffffffffffffffff1660065f9054906101000a900473ffffffffffffffffffffffffffffffffffffffff1673ffffffffffffffffffffffffffffffffffffffff1603610b5c573360065f6101000a81548173ffffffffffffffffffffffffffffffffffffffff021916908373ffffffffffffffffffffffffffffffffffffffff16021790555060075f3373ffffffffffffffffffffffffffffffffffffffff1673ffffffffffffffffffffffffffffffffffffffff1681526020019081526020015f205f815480929190610afe90612c55565b9190505550610b1e335f600160405180602001604052805f815250611303565b7f4d59c8ade697dae17ee35b0818791d4b82600a0f336e3c8cd4490b0094f381c0335f604051610b4f929190612cd5565b60405180910390a1610bb2565b610b773360018060405180602001604052805f815250611303565b7f4d59c8ade697dae17ee35b0818791d4b82600a0f336e3c8cd4490b0094f381c0336001604051610ba9929190612d35565b60405180910390a15b809250505092915050565b600b5481565b5f600954905090565b60608151835114610c1857815183516040517f5b059991000000000000000000000000000000000000000000000000000000008152600401610c0f929190612d5c565b60405180910390fd5b5f835167ffffffffffffffff811115610c3457610c336121e2565b5b604051908082528060200260200182016040528015610c625781602001602082028036833780820191505090505b5090505f5f90505b8451811015610ccb57610ca1610c89828761139890919063ffffffff16565b610c9c83876113ab90919063ffffffff16565b6104d2565b828281518110610cb457610cb3612a92565b5b602002602001018181525050806001019050610c6a565b508091505092915050565b610cde6113be565b8060045f6101000a81548173ffffffffffffffffffffffffffffffffffffffff021916908373ffffffffffffffffffffffffffffffffffffffff1602179055507f883b8cf648874db062c8c59bb4627112c9548dd038592ff91451c6d4df38dcbb81604051610d4d9190612924565b60405180910390a150565b6007602052805f5260405f205f915090505481565b610d756113be565b610d7e5f611445565b565b60065f9054906101000a900473ffffffffffffffffffffffffffffffffffffffff1681565b610dad6113be565b5f600b5403610dc95742600b8190555080600981905550610efc565b600a54600b54610dd99190612d83565b421015610e2e57600a54600b5442610df19190612db6565b6040517f5af8b00a000000000000000000000000000000000000000000000000000000008152600401610e25929190612d5c565b60405180910390fd5b5f73ffffffffffffffffffffffffffffffffffffffff1660065f9054906101000a900473ffffffffffffffffffffffffffffffffffffffff1673ffffffffffffffffffffffffffffffffffffffff1603610eb4576040517fc47dfa5900000000000000000000000000000000000000000000000000000000815260040160405180910390fd5b806009819055505f60065f6101000a81548173ffffffffffffffffffffffffffffffffffffffff021916908373ffffffffffffffffffffffffffffffffffffffff1602179055505b60055f815480929190610f0e90612c55565b91905055507fbf6b3125752d5eef17649b981c8b2be3c7e3b743fa64915a061a6ce2c903f55460405160405180910390a150565b5f60035f9054906101000a900473ffffffffffffffffffffffffffffffffffffffff16905090565b610f7c610f75611208565b8383611508565b5050565b600a5481565b60055481565b60045f9054906101000a900473ffffffffffffffffffffffffffffffffffffffff1681565b6008602052805f5260405f205f915090505481565b6060604051806080016040528060528152602001612fa160529139905090565b5f60015f8473ffffffffffffffffffffffffffffffffffffffff1673ffffffffffffffffffffffffffffffffffffffff1681526020019081526020015f205f8373ffffffffffffffffffffffffffffffffffffffff1673ffffffffffffffffffffffffffffffffffffffff1681526020019081526020015f205f9054906101000a900460ff16905092915050565b5f61107d611208565b90508073ffffffffffffffffffffffffffffffffffffffff168673ffffffffffffffffffffffffffffffffffffffff16141580156110c257506110c08682610fe6565b155b156111065780866040517fe237d9220000000000000000000000000000000000000000000000000000000081526004016110fd929190612a6b565b60405180910390fd5b6111138686868686611671565b505050505050565b6111236113be565b5f73ffffffffffffffffffffffffffffffffffffffff168173ffffffffffffffffffffffffffffffffffffffff1603611193575f6040517f1e4fbdf700000000000000000000000000000000000000000000000000000000815260040161118a919061210a565b60405180910390fd5b61119c81611445565b50565b5f7f01ffc9a7000000000000000000000000000000000000000000000000000000007bffffffffffffffffffffffffffffffffffffffffffffffffffffffff1916827bffffffffffffffffffffffffffffffffffffffffffffffffffffffff1916149050919050565b5f33905090565b5f73ffffffffffffffffffffffffffffffffffffffff168473ffffffffffffffffffffffffffffffffffffffff160361127f575f6040517f57f447ce000000000000000000000000000000000000000000000000000000008152600401611276919061210a565b60405180910390fd5b5f73ffffffffffffffffffffffffffffffffffffffff168573ffffffffffffffffffffffffffffffffffffffff16036112ef575f6040517f01a835140000000000000000000000000000000000000000000000000000000081526004016112e6919061210a565b60405180910390fd5b6112fc8585858585611777565b5050505050565b5f73ffffffffffffffffffffffffffffffffffffffff168473ffffffffffffffffffffffffffffffffffffffff1603611373575f6040517f57f447ce00000000000000000000000000000000000000000000000000000000815260040161136a919061210a565b60405180910390fd5b5f5f61137f8585611823565b915091506113905f87848487611777565b505050505050565b5f60208202602084010151905092915050565b5f60208202602084010151905092915050565b6113c6611208565b73ffffffffffffffffffffffffffffffffffffffff166113e4610f42565b73ffffffffffffffffffffffffffffffffffffffff161461144357611407611208565b6040517f118cdaa700000000000000000000000000000000000000000000000000000000815260040161143a919061210a565b60405180910390fd5b565b5f60035f9054906101000a900473ffffffffffffffffffffffffffffffffffffffff1690508160035f6101000a81548173ffffffffffffffffffffffffffffffffffffffff021916908373ffffffffffffffffffffffffffffffffffffffff1602179055508173ffffffffffffffffffffffffffffffffffffffff168173ffffffffffffffffffffffffffffffffffffffff167f8be0079c531659141344cd1fd0a4f28419497f9722a3daafe3b4186f6b6457e060405160405180910390a35050565b5f73ffffffffffffffffffffffffffffffffffffffff168273ffffffffffffffffffffffffffffffffffffffff1603611578575f6040517fced3e10000000000000000000000000000000000000000000000000000000000815260040161156f919061210a565b60405180910390fd5b8060015f8573ffffffffffffffffffffffffffffffffffffffff1673ffffffffffffffffffffffffffffffffffffffff1681526020019081526020015f205f8473ffffffffffffffffffffffffffffffffffffffff1673ffffffffffffffffffffffffffffffffffffffff1681526020019081526020015f205f6101000a81548160ff0219169083151502179055508173ffffffffffffffffffffffffffffffffffffffff168373ffffffffffffffffffffffffffffffffffffffff167f17307eab39ab6107e8899845ad3d59bd9653f200f220920489ca2b5937696c318360405161166491906120e2565b60405180910390a3505050565b5f73ffffffffffffffffffffffffffffffffffffffff168473ffffffffffffffffffffffffffffffffffffffff16036116e1575f6040517f57f447ce0000000000000000000000000000000000000000000000000000000081526004016116d8919061210a565b60405180910390fd5b5f73ffffffffffffffffffffffffffffffffffffffff168573ffffffffffffffffffffffffffffffffffffffff1603611751575f6040517f01a83514000000000000000000000000000000000000000000000000000000008152600401611748919061210a565b60405180910390fd5b5f5f61175d8585611823565b9150915061176e8787848487611777565b50505050505050565b61178385858585611853565b5f73ffffffffffffffffffffffffffffffffffffffff168473ffffffffffffffffffffffffffffffffffffffff161461181c575f6117bf611208565b9050600184510361180b575f6117de5f866113ab90919063ffffffff16565b90505f6117f45f866113ab90919063ffffffff16565b9050611804838989858589611be6565b505061181a565b611819818787878787611d95565b5b505b5050505050565b60608060405191506001825283602083015260408201905060018152826020820152604081016040529250929050565b805182511461189d57815181516040517f5b059991000000000000000000000000000000000000000000000000000000008152600401611894929190612d5c565b60405180910390fd5b5f6118a6611208565b90505f5f90505b8351811015611aa5575f6118ca82866113ab90919063ffffffff16565b90505f6118e083866113ab90919063ffffffff16565b90505f73ffffffffffffffffffffffffffffffffffffffff168873ffffffffffffffffffffffffffffffffffffffff1614611a03575f5f5f8481526020019081526020015f205f8a73ffffffffffffffffffffffffffffffffffffffff1673ffffffffffffffffffffffffffffffffffffffff1681526020019081526020015f20549050818110156119af57888183856040517f03dee4c50000000000000000000000000000000000000000000000000000000081526004016119a69493929190612de9565b60405180910390fd5b8181035f5f8581526020019081526020015f205f8b73ffffffffffffffffffffffffffffffffffffffff1673ffffffffffffffffffffffffffffffffffffffff1681526020019081526020015f2081905550505b5f73ffffffffffffffffffffffffffffffffffffffff168773ffffffffffffffffffffffffffffffffffffffff1614611a9857805f5f8481526020019081526020015f205f8973ffffffffffffffffffffffffffffffffffffffff1673ffffffffffffffffffffffffffffffffffffffff1681526020019081526020015f205f828254611a909190612d83565b925050819055505b50508060010190506118ad565b506001835103611b60575f611ac35f856113ab90919063ffffffff16565b90505f611ad95f856113ab90919063ffffffff16565b90508573ffffffffffffffffffffffffffffffffffffffff168773ffffffffffffffffffffffffffffffffffffffff168473ffffffffffffffffffffffffffffffffffffffff167fc3d58168c5ae7397731d063d5bbf3d657854427343f4c083240f7aacaa2d0f628585604051611b51929190612d5c565b60405180910390a45050611bdf565b8373ffffffffffffffffffffffffffffffffffffffff168573ffffffffffffffffffffffffffffffffffffffff168273ffffffffffffffffffffffffffffffffffffffff167f4a39dc06d4c0dbc64b70af90fd698a233a518aa5d07e595d983b8c0526c8f7fb8686604051611bd6929190612e2c565b60405180910390a45b5050505050565b5f8473ffffffffffffffffffffffffffffffffffffffff163b1115611d8d578373ffffffffffffffffffffffffffffffffffffffff1663f23a6e6187878686866040518663ffffffff1660e01b8152600401611c46959493929190612ea3565b6020604051808303815f875af1925050508015611c8157506040513d601f19601f82011682018060405250810190611c7e9190612f0f565b60015b611d02573d805f8114611caf576040519150601f19603f3d011682016040523d82523d5f602084013e611cb4565b606091505b505f815103611cfa57846040517f57f447ce000000000000000000000000000000000000000000000000000000008152600401611cf1919061210a565b60405180910390fd5b805181602001fd5b63f23a6e6160e01b7bffffffffffffffffffffffffffffffffffffffffffffffffffffffff1916817bffffffffffffffffffffffffffffffffffffffffffffffffffffffff191614611d8b57846040517f57f447ce000000000000000000000000000000000000000000000000000000008152600401611d82919061210a565b60405180910390fd5b505b505050505050565b5f8473ffffffffffffffffffffffffffffffffffffffff163b1115611f3c578373ffffffffffffffffffffffffffffffffffffffff1663bc197c8187878686866040518663ffffffff1660e01b8152600401611df5959493929190612f3a565b6020604051808303815f875af1925050508015611e3057506040513d601f19601f82011682018060405250810190611e2d9190612f0f565b60015b611eb1573d805f8114611e5e576040519150601f19603f3d011682016040523d82523d5f602084013e611e63565b606091505b505f815103611ea957846040517f57f447ce000000000000000000000000000000000000000000000000000000008152600401611ea0919061210a565b60405180910390fd5b805181602001fd5b63bc197c8160e01b7bffffffffffffffffffffffffffffffffffffffffffffffffffffffff1916817bffffffffffffffffffffffffffffffffffffffffffffffffffffffff191614611f3a57846040517f57f447ce000000000000000000000000000000000000000000000000000000008152600401611f31919061210a565b60405180910390fd5b505b505050505050565b5f604051905090565b5f5ffd5b5f5ffd5b5f73ffffffffffffffffffffffffffffffffffffffff82169050919050565b5f611f7e82611f55565b9050919050565b611f8e81611f74565b8114611f98575f5ffd5b50565b5f81359050611fa981611f85565b92915050565b5f819050919050565b611fc181611faf565b8114611fcb575f5ffd5b50565b5f81359050611fdc81611fb8565b92915050565b5f5f60408385031215611ff857611ff7611f4d565b5b5f61200585828601611f9b565b925050602061201685828601611fce565b9150509250929050565b61202981611faf565b82525050565b5f6020820190506120425f830184612020565b92915050565b5f7fffffffff0000000000000000000000000000000000000000000000000000000082169050919050565b61207c81612048565b8114612086575f5ffd5b50565b5f8135905061209781612073565b92915050565b5f602082840312156120b2576120b1611f4d565b5b5f6120bf84828501612089565b91505092915050565b5f8115159050919050565b6120dc816120c8565b82525050565b5f6020820190506120f55f8301846120d3565b92915050565b61210481611f74565b82525050565b5f60208201905061211d5f8301846120fb565b92915050565b5f6020828403121561213857612137611f4d565b5b5f61214584828501611fce565b91505092915050565b5f81519050919050565b5f82825260208201905092915050565b8281835e5f83830152505050565b5f601f19601f8301169050919050565b5f6121908261214e565b61219a8185612158565b93506121aa818560208601612168565b6121b381612176565b840191505092915050565b5f6020820190508181035f8301526121d68184612186565b905092915050565b5f5ffd5b7f4e487b71000000000000000000000000000000000000000000000000000000005f52604160045260245ffd5b61221882612176565b810181811067ffffffffffffffff82111715612237576122366121e2565b5b80604052505050565b5f612249611f44565b9050612255828261220f565b919050565b5f67ffffffffffffffff821115612274576122736121e2565b5b602082029050602081019050919050565b5f5ffd5b5f61229b6122968461225a565b612240565b905080838252602082019050602084028301858111156122be576122bd612285565b5b835b818110156122e757806122d38882611fce565b8452602084019350506020810190506122c0565b5050509392505050565b5f82601f830112612305576123046121de565b5b8135612315848260208601612289565b91505092915050565b5f5ffd5b5f67ffffffffffffffff82111561233c5761233b6121e2565b5b61234582612176565b9050602081019050919050565b828183375f83830152505050565b5f61237261236d84612322565b612240565b90508281526020810184848401111561238e5761238d61231e565b5b612399848285612352565b509392505050565b5f82601f8301126123b5576123b46121de565b5b81356123c5848260208601612360565b91505092915050565b5f5f5f5f5f60a086880312156123e7576123e6611f4d565b5b5f6123f488828901611f9b565b955050602061240588828901611f9b565b945050604086013567ffffffffffffffff81111561242657612425611f51565b5b612432888289016122f1565b935050606086013567ffffffffffffffff81111561245357612452611f51565b5b61245f888289016122f1565b925050608086013567ffffffffffffffff8111156124805761247f611f51565b5b61248c888289016123a1565b9150509295509295909350565b5f819050919050565b6124ab81612499565b82525050565b5f6020820190506124c45f8301846124a2565b92915050565b5f5ffd5b5f5f83601f8401126124e3576124e26121de565b5b8235905067ffffffffffffffff811115612500576124ff6124ca565b5b60208301915083600182028301111561251c5761251b612285565b5b9250929050565b5f5f6020838503121561253957612538611f4d565b5b5f83013567ffffffffffffffff81111561255657612555611f51565b5b612562858286016124ce565b92509250509250929050565b5f67ffffffffffffffff821115612588576125876121e2565b5b602082029050602081019050919050565b5f6125ab6125a68461256e565b612240565b905080838252602082019050602084028301858111156125ce576125cd612285565b5b835b818110156125f757806125e38882611f9b565b8452602084019350506020810190506125d0565b5050509392505050565b5f82601f830112612615576126146121de565b5b8135612625848260208601612599565b91505092915050565b5f5f6040838503121561264457612643611f4d565b5b5f83013567ffffffffffffffff81111561266157612660611f51565b5b61266d85828601612601565b925050602083013567ffffffffffffffff81111561268e5761268d611f51565b5b61269a858286016122f1565b9150509250929050565b5f81519050919050565b5f82825260208201905092915050565b5f819050602082019050919050565b6126d681611faf565b82525050565b5f6126e783836126cd565b60208301905092915050565b5f602082019050919050565b5f612709826126a4565b61271381856126ae565b935061271e836126be565b805f5b8381101561274e57815161273588826126dc565b9750612740836126f3565b925050600181019050612721565b5085935050505092915050565b5f6020820190508181035f83015261277381846126ff565b905092915050565b5f61278582611f74565b9050919050565b6127958161277b565b811461279f575f5ffd5b50565b5f813590506127b08161278c565b92915050565b5f602082840312156127cb576127ca611f4d565b5b5f6127d8848285016127a2565b91505092915050565b5f602082840312156127f6576127f5611f4d565b5b5f61280384828501611f9b565b91505092915050565b61281581612499565b811461281f575f5ffd5b50565b5f813590506128308161280c565b92915050565b5f6020828403121561284b5761284a611f4d565b5b5f61285884828501612822565b91505092915050565b61286a816120c8565b8114612874575f5ffd5b50565b5f8135905061288581612861565b92915050565b5f5f604083850312156128a1576128a0611f4d565b5b5f6128ae85828601611f9b565b92505060206128bf85828601612877565b9150509250929050565b5f819050919050565b5f6128ec6128e76128e284611f55565b6128c9565b611f55565b9050919050565b5f6128fd826128d2565b9050919050565b5f61290e826128f3565b9050919050565b61291e81612904565b82525050565b5f6020820190506129375f830184612915565b92915050565b5f5f6040838503121561295357612952611f4d565b5b5f61296085828601611f9b565b925050602061297185828601611f9b565b9150509250929050565b5f5f5f5f5f60a0868803121561299457612993611f4d565b5b5f6129a188828901611f9b565b95505060206129b288828901611f9b565b94505060406129c388828901611fce565b93505060606129d488828901611fce565b925050608086013567ffffffffffffffff8111156129f5576129f4611f51565b5b612a01888289016123a1565b9150509295509295909350565b7f4e487b71000000000000000000000000000000000000000000000000000000005f52602260045260245ffd5b5f6002820490506001821680612a5257607f821691505b602082108103612a6557612a64612a0e565b5b50919050565b5f604082019050612a7e5f8301856120fb565b612a8b60208301846120fb565b9392505050565b7f4e487b71000000000000000000000000000000000000000000000000000000005f52603260045260245ffd5b5f82825260208201905092915050565b5f612ada8385612abf565b9350612ae7838584612352565b612af083612176565b840190509392505050565b5f81519050919050565b5f82825260208201905092915050565b5f819050602082019050919050565b612b2d81612499565b82525050565b5f612b3e8383612b24565b60208301905092915050565b5f602082019050919050565b5f612b6082612afb565b612b6a8185612b05565b9350612b7583612b15565b805f5b83811015612ba5578151612b8c8882612b33565b9750612b9783612b4a565b925050600181019050612b78565b5085935050505092915050565b5f6040820190508181035f830152612bcb818587612acf565b90508181036020830152612bdf8184612b56565b9050949350505050565b5f81519050612bf781612861565b92915050565b5f60208284031215612c1257612c11611f4d565b5b5f612c1f84828501612be9565b91505092915050565b7f4e487b71000000000000000000000000000000000000000000000000000000005f52601160045260245ffd5b5f612c5f82611faf565b91507fffffffffffffffffffffffffffffffffffffffffffffffffffffffffffffffff8203612c9157612c90612c28565b5b600182019050919050565b5f819050919050565b5f612cbf612cba612cb584612c9c565b6128c9565b611faf565b9050919050565b612ccf81612ca5565b82525050565b5f604082019050612ce85f8301856120fb565b612cf56020830184612cc6565b9392505050565b5f819050919050565b5f612d1f612d1a612d1584612cfc565b6128c9565b611faf565b9050919050565b612d2f81612d05565b82525050565b5f604082019050612d485f8301856120fb565b612d556020830184612d26565b9392505050565b5f604082019050612d6f5f830185612020565b612d7c6020830184612020565b9392505050565b5f612d8d82611faf565b9150612d9883611faf565b9250828201905080821115612db057612daf612c28565b5b92915050565b5f612dc082611faf565b9150612dcb83611faf565b9250828203905081811115612de357612de2612c28565b5b92915050565b5f608082019050612dfc5f8301876120fb565b612e096020830186612020565b612e166040830185612020565b612e236060830184612020565b95945050505050565b5f6040820190508181035f830152612e4481856126ff565b90508181036020830152612e5881846126ff565b90509392505050565b5f81519050919050565b5f612e7582612e61565b612e7f8185612abf565b9350612e8f818560208601612168565b612e9881612176565b840191505092915050565b5f60a082019050612eb65f8301886120fb565b612ec360208301876120fb565b612ed06040830186612020565b612edd6060830185612020565b8181036080830152612eef8184612e6b565b90509695505050505050565b5f81519050612f0981612073565b92915050565b5f60208284031215612f2457612f23611f4d565b5b5f612f3184828501612efb565b91505092915050565b5f60a082019050612f4d5f8301886120fb565b612f5a60208301876120fb565b8181036040830152612f6c81866126ff565b90508181036060830152612f8081856126ff565b90508181036080830152612f948184612e6b565b9050969550505050505056fe697066733a2f2f62616679626569637166633469706b6c653334746771763367683767636377686d7232327164673770366b366f786f6e3235356d6e7762366373692f636f6c6c656374696f6e2e6a736f6ea2646970667358221220f7154fd8c7be820f0beb609d0961bcb30402ce5ec8894d16bb81f2cfd581017964736f6c634300081e0033697066733a2f2f62616679626569637166633469706b6c653334746771763367683767636377686d7232327164673770366b366f786f6e3235356d6e7762366373692f7b69647d2e6a736f6e","linkReferences":{}},"methodIdentifiers":{"MIN_DURATION()":"b6a6d177","balanceOf(address,uint256)":"00fdd58e","balanceOfBatch(address[],uint256[])":"4e1273f4","contractURI()":"e8a3d485","getCurrentPanagram()":"463e4069","getCurrentRoundStatus()":"0d31d835","isApprovedForAll(address,address)":"e985e9c5","makeGuess(bytes)":"3dc09e05","newRound(bytes32)":"7d1ca52c","owner()":"8da5cb5b","renounceOwnership()":"715018a6","s_answer()":"305da2db","s_currentRound()":"c5c1676d","s_currentRoundWinner()":"76f865f9","s_lastCorrectGuessRound(address)":"e890cd59","s_roundStartTime()":"3e7fbd06","s_verifier()":"da730836","s_winnerWins(address)":"5cb2b447","safeBatchTransferFrom(address,address,uint256[],uint256[],bytes)":"2eb2c2d6","safeTransferFrom(address,address,uint256,uint256,bytes)":"f242432a","setApprovalForAll(address,bool)":"a22cb465","setVerifier(address)":"5437988d","supportsInterface(bytes4)":"01ffc9a7","transferOwnership(address)":"f2fde38b","uri(uint256)":"0e89341c"},"id":19}